{
  "address": "0x6723659425DfdF94caf6345fA269855066FB57f0",
  "abi": [
    {
      "inputs": [
        {
          "internalType": "address",
          "name": "_fem",
          "type": "address"
        },
        {
          "internalType": "address",
          "name": "_devAddress",
          "type": "address"
        },
        {
          "internalType": "uint256",
          "name": "_devTokenBips",
          "type": "uint256"
        },
        {
          "internalType": "uint32",
          "name": "_saleStartTime",
          "type": "uint32"
        },
        {
          "internalType": "uint32",
          "name": "_saleDuration",
          "type": "uint32"
        },
        {
          "internalType": "uint32",
          "name": "_timeToSpend",
          "type": "uint32"
        },
        {
          "internalType": "uint256",
          "name": "_minimumEthRaised",
          "type": "uint256"
        }
      ],
      "stateMutability": "nonpayable",
      "type": "constructor"
    },
    {
      "inputs": [],
      "name": "activateGoverness",
      "outputs": [],
      "stateMutability": "nonpayable",
      "type": "function"
    },
    {
      "inputs": [],
      "name": "fem",
      "outputs": [
        {
          "internalType": "contract IFem",
          "name": "",
          "type": "address"
        }
      ],
      "stateMutability": "view",
      "type": "function"
    },
    {
      "inputs": [],
      "name": "femErecter",
      "outputs": [
        {
          "internalType": "contract FemErecter",
          "name": "",
          "type": "address"
        }
      ],
      "stateMutability": "view",
      "type": "function"
    },
    {
      "inputs": [],
      "name": "governess",
      "outputs": [
        {
          "internalType": "contract Governess",
          "name": "",
          "type": "address"
        }
      ],
      "stateMutability": "view",
      "type": "function"
    },
    {
      "inputs": [],
      "name": "timelockController",
      "outputs": [
        {
          "internalType": "contract TimelockController",
          "name": "",
          "type": "address"
        }
      ],
      "stateMutability": "view",
      "type": "function"
    }
  ],
  "transactionHash": "0xcdf76601de53c354962bb6e85df61a66a3e6baafd8e69a5dbd8482edeeb70d6f",
  "args": [
    "0xf344b01da08b142d2466dae9e47e333f22e64588",
    "0x07ceC3217606C9204c763574848725b714F14985",
    1000,
    1649376000,
    1209600,
    6393600,
    "25000000000000000000"
  ],
  "solcInputHash": "ae30f723a0979411404a1619feea51e0",
  "bytecode": "0x61010060405234801561001157600080fd5b5060405162006c7838038062006c788339810160408190526100329161030a565b6001600160a01b03871660c0526040516000908890309060001990610056906102b0565b6001600160a01b0393841681529290911660208301526040820152606001604051809103906000f080158015610090573d6000803e3d6000fd5b506001600160a01b03811660a0526040805160018082528183019092529192506000919060208083019080368337505060408051600180825281830190925292935060009291506020808301908036833701905050905082826000815181106100fb576100fb610382565b60200260200101906001600160a01b031690816001600160a01b031681525050828160008151811061012f5761012f610382565b60200260200101906001600160a01b031690816001600160a01b03168152505060006202a3008383604051610163906102be565b61016f939291906103dc565b604051809103906000f08015801561018b573d6000803e3d6000fd5b506001600160a01b0381166080819052604051631b2b455f60e11b81527f5f58e3a2316349923ce3780f8d587db2d72378aed66a8261c916544fa6846ca56004820152306024820152919250906336568abe90604401600060405180830381600087803b1580156101fb57600080fd5b505af115801561020f573d6000803e3d6000fd5b50505050808a8a8d8b8b8b8b604051610227906102cc565b6001600160a01b0398891681529688166020880152604087019590955295909216606085015263ffffffff908116608085015290811660a084015290921660c082015260e081019190915261010001604051809103906000f080158015610292573d6000803e3d6000fd5b506001600160a01b031660e052506104119950505050505050505050565b6132da80620009e183390190565b611df48062003cbb83390190565b6111c98062005aaf83390190565b80516001600160a01b03811681146102f157600080fd5b919050565b805163ffffffff811681146102f157600080fd5b600080600080600080600060e0888a03121561032557600080fd5b61032e886102da565b965061033c602089016102da565b955060408801519450610351606089016102f6565b935061035f608089016102f6565b925061036d60a089016102f6565b915060c0880151905092959891949750929550565b634e487b7160e01b600052603260045260246000fd5b600081518084526020808501945080840160005b838110156103d15781516001600160a01b0316875295820195908201906001016103ac565b509495945050505050565b8381526060602082015260006103f56060830185610398565b82810360408401526104078185610398565b9695505050505050565b60805160a05160c05160e051610570620004716000396000818160a4015281816101220152610232015260008181606101526102cf01526000818160d50152818161039a015261043b01526000818160fc015261041301526105706000f3fe608060405234801561001057600080fd5b50600436106100575760003560e01c80630e9e04101461005c5780635d3ad4761461009f578063ac517bdd146100c6578063d5c20698146100d0578063f3388e75146100f7575b600080fd5b6100837f000000000000000000000000000000000000000000000000000000000000000081565b6040516001600160a01b03909116815260200160405180910390f35b6100837f000000000000000000000000000000000000000000000000000000000000000081565b6100ce61011e565b005b6100837f000000000000000000000000000000000000000000000000000000000000000081565b6100837f000000000000000000000000000000000000000000000000000000000000000081565b60027f00000000000000000000000000000000000000000000000000000000000000006001600160a01b031663c19d93fb6040518163ffffffff1660e01b815260040160206040518083038186803b15801561017957600080fd5b505afa15801561018d573d6000803e3d6000fd5b505050506040513d601f19601f820116820180604052508101906101b191906104b3565b60048111156101c2576101c261049d565b1461022b5760405162461bcd60e51b815260206004820152602f60248201527f43616e206e6f7420616374697661746520676f7665726e657373206265666f7260448201526e652073616c6520737563636565647360881b606482015260840160405180910390fd5b60006127107f00000000000000000000000000000000000000000000000000000000000000006001600160a01b0316632127cbb76040518163ffffffff1660e01b815260040160206040518083038186803b15801561028957600080fd5b505afa15801561029d573d6000803e3d6000fd5b505050506040513d601f19601f820116820180604052508101906102c191906104db565b6102cd9061271061050a565b7f00000000000000000000000000000000000000000000000000000000000000006001600160a01b03166318160ddd6040518163ffffffff1660e01b815260040160206040518083038186803b15801561032657600080fd5b505afa15801561033a573d6000803e3d6000fd5b505050506040513d601f19601f8201168201806040525081019061035e91906104db565b6103689190610522565b6103729190610541565b90506000610381606483610541565b60405163ece40cc160e01b8152600481018290529091507f00000000000000000000000000000000000000000000000000000000000000006001600160a01b03169063ece40cc190602401600060405180830381600087803b1580156103e657600080fd5b505af11580156103fa573d6000803e3d6000fd5b5050604051630a890c9160e41b81526001600160a01b037f0000000000000000000000000000000000000000000000000000000000000000811660048301527f000000000000000000000000000000000000000000000000000000000000000016925063a890c9109150602401600060405180830381600087803b15801561048157600080fd5b505af1158015610495573d6000803e3d6000fd5b505050505050565b634e487b7160e01b600052602160045260246000fd5b6000602082840312156104c557600080fd5b8151600581106104d457600080fd5b9392505050565b6000602082840312156104ed57600080fd5b5051919050565b634e487b7160e01b600052601160045260246000fd5b6000821982111561051d5761051d6104f4565b500190565b600081600019048311821515161561053c5761053c6104f4565b500290565b60008261055e57634e487b7160e01b600052601260045260246000fd5b50049056fea164736f6c6343000809000a6101606040523480156200001257600080fd5b50604051620032da380380620032da8339810160408190526200003591620004a7565b816004846001614cb48560405180604001604052806009815260200168476f7665726e65737360b81b81525080620000726200016d60201b60201c565b815160208084019190912082518383012060e08290526101008190524660a0818152604080517f8b73c3c69bb8fe3d512ecc4cf759cc79239f7b179b0ffacaa9a75d522b39400f81880181905281830187905260608201869052608082019490945230818401528151808203909301835260c00190528051940193909320919290916080523060c0526101205250508251620001189250600091506020840190620003e4565b506200012690508362000188565b6200013182620001c9565b6200013c8162000270565b5050506001600160a01b0316610140526200015781620002b1565b5062000163816200037b565b5050505062000525565b6040805180820190915260018152603160f81b602082015290565b60025460408051918252602082018390527fc565b045403dc03c2eea82b81a0465edad9e2e7fc4d97e11421c209da93d7a93910160405180910390a1600255565b600081116200022f5760405162461bcd60e51b815260206004820152602760248201527f476f7665726e6f7253657474696e67733a20766f74696e6720706572696f6420604482015266746f6f206c6f7760c81b60648201526084015b60405180910390fd5b60035460408051918252602082018390527f7e3f7f0708a84de9203036abaa450dccc85ad5ff52f78c170f3edb55cf5e8828910160405180910390a1600355565b60045460408051918252602082018390527fccb45da8d5717e6c4544694297c4ba5cf151d455c9bb0ed4fc7a38411bc05461910160405180910390a1600455565b6064811115620003365760405162461bcd60e51b815260206004820152604360248201527f476f7665726e6f72566f74657351756f72756d4672616374696f6e3a2071756f60448201527f72756d4e756d657261746f72206f7665722071756f72756d44656e6f6d696e616064820152623a37b960e91b608482015260a40162000226565b600680549082905560408051828152602081018490527f0553476bf02ef2726e8ce5ced78d63e26e602e4a2257b1f559418e24b4633997910160405180910390a15050565b600754604080516001600160a01b03928316815291831660208301527f08f74ea46ef7894f65eabfb5e6e695de773a000b47c529ab559178069b226401910160405180910390a1600780546001600160a01b0319166001600160a01b0392909216919091179055565b828054620003f290620004e8565b90600052602060002090601f01602090048101928262000416576000855562000461565b82601f106200043157805160ff191683800117855562000461565b8280016001018555821562000461579182015b828111156200046157825182559160200191906001019062000444565b506200046f92915062000473565b5090565b5b808211156200046f576000815560010162000474565b80516001600160a01b0381168114620004a257600080fd5b919050565b600080600060608486031215620004bd57600080fd5b620004c8846200048a565b9250620004d8602085016200048a565b9150604084015190509250925092565b600181811c90821680620004fd57607f821691505b602082108114156200051f57634e487b7160e01b600052602260045260246000fd5b50919050565b60805160a05160c05160e051610100516101205161014051612d4c6200058e600039600081816106ce01528181611770015261184a01526000611a1301526000611a6201526000611a3d01526000611996015260006119c0015260006119ea0152612d4c6000f3fe6080604052600436106101f25760003560e01c80637d5e81e21161010d578063c59057e4116100a0578063ea0217cf1161006f578063ea0217cf1461063c578063eb9019d41461065c578063ece40cc11461067c578063f8ce560a1461069c578063fc0c546a146106bc57600080fd5b8063c59057e414610570578063d33219b414610590578063dd4e2ba5146105c2578063deaaa7cc1461060857600080fd5b8063ab58fb8e116100dc578063ab58fb8e146104fb578063b58131b01461051b578063c01f9e3714610530578063c28bc2fa1461055057600080fd5b80637d5e81e21461049257806397c3d334146104b2578063a7713a70146104c6578063a890c910146104db57600080fd5b80633bccf4fd1161018557806354fd4d501161015457806354fd4d5014610408578063567813881461043257806370b0f660146104525780637b3c71d31461047257600080fd5b80633bccf4fd1461031c5780633e4f49e61461033c5780634385963214610369578063544ffc9c146103b357600080fd5b8063160cbed7116101c1578063160cbed7146102b45780632656227d146102d45780632d63f693146102e75780633932abb11461030757600080fd5b806301ffc9a71461021a57806302a251a31461024f57806306f3f9e61461027257806306fdde031461029257600080fd5b3661021557306102006106f0565b6001600160a01b03161461021357600080fd5b005b600080fd5b34801561022657600080fd5b5061023a6102353660046121e5565b610709565b60405190151581526020015b60405180910390f35b34801561025b57600080fd5b5061026461071a565b604051908152602001610246565b34801561027e57600080fd5b5061021361028d36600461220f565b610725565b34801561029e57600080fd5b506102a7610772565b6040516102469190612284565b3480156102c057600080fd5b506102646102cf3660046124cf565b610804565b6102646102e23660046124cf565b610a22565b3480156102f357600080fd5b5061026461030236600461220f565b610af5565b34801561031357600080fd5b50610264610b2c565b34801561032857600080fd5b50610264610337366004612574565b610b37565b34801561034857600080fd5b5061035c61035736600461220f565b610bcb565b60405161024691906125d8565b34801561037557600080fd5b5061023a610384366004612600565b60008281526005602090815260408083206001600160a01b038516845260030190915290205460ff1692915050565b3480156103bf57600080fd5b506103ed6103ce36600461220f565b6000908152600560205260409020805460018201546002909201549092565b60408051938452602084019290925290820152606001610246565b34801561041457600080fd5b506040805180820190915260018152603160f81b60208201526102a7565b34801561043e57600080fd5b5061026461044d366004612630565b610bd6565b34801561045e57600080fd5b5061021361046d36600461220f565b610bff565b34801561047e57600080fd5b5061026461048d3660046126a4565b610c40565b34801561049e57600080fd5b506102646104ad3660046126fd565b610c92565b3480156104be57600080fd5b506064610264565b3480156104d257600080fd5b50600654610264565b3480156104e757600080fd5b506102136104f63660046127bd565b610ca9565b34801561050757600080fd5b5061026461051636600461220f565b610cea565b34801561052757600080fd5b50610264610d94565b34801561053c57600080fd5b5061026461054b36600461220f565b610d9f565b34801561055c57600080fd5b5061021361056b3660046127da565b610dce565b34801561057c57600080fd5b5061026461058b3660046124cf565b610e4f565b34801561059c57600080fd5b506007546001600160a01b03165b6040516001600160a01b039091168152602001610246565b3480156105ce57600080fd5b506040805180820190915260208082527f737570706f72743d627261766f2671756f72756d3d666f722c6162737461696e908201526102a7565b34801561061457600080fd5b506102647f150214d74d59b7d1e90c73fc22ef3d991dd0a76b046543d4d80ab92d2a50328f81565b34801561064857600080fd5b5061021361065736600461220f565b610e89565b34801561066857600080fd5b5061026461067736600461281d565b610eca565b34801561068857600080fd5b5061021361069736600461220f565b610ed6565b3480156106a857600080fd5b506102646106b736600461220f565b610f17565b3480156106c857600080fd5b506105aa7f000000000000000000000000000000000000000000000000000000000000000081565b60006107046007546001600160a01b031690565b905090565b600061071482610f22565b92915050565b600061070460035490565b61072d6106f0565b6001600160a01b0316336001600160a01b0316146107665760405162461bcd60e51b815260040161075d90612849565b60405180910390fd5b61076f81610f47565b50565b60606000805461078190612880565b80601f01602080910402602001604051908101604052809291908181526020018280546107ad90612880565b80156107fa5780601f106107cf576101008083540402835291602001916107fa565b820191906000526020600020905b8154815290600101906020018083116107dd57829003601f168201915b5050505050905090565b60008061081386868686610e4f565b9050600461082082610bcb565b6007811115610831576108316125c2565b1461084e5760405162461bcd60e51b815260040161075d906128bb565b6007546040805163793d064960e11b815290516000926001600160a01b03169163f27a0c92916004808301926020929190829003018186803b15801561089357600080fd5b505afa1580156108a7573d6000803e3d6000fd5b505050506040513d601f19601f820116820180604052508101906108cb91906128fc565b60075460405163b1c5f42760e01b81529192506001600160a01b03169063b1c5f42790610905908a908a908a906000908b906004016129de565b60206040518083038186803b15801561091d57600080fd5b505afa158015610931573d6000803e3d6000fd5b505050506040513d601f19601f8201168201806040525081019061095591906128fc565b6000838152600860205260408082209290925560075491516308f2a0bb60e41b81526001600160a01b0390921691638f2a0bb0916109a0918b918b918b91908b908990600401612a2c565b600060405180830381600087803b1580156109ba57600080fd5b505af11580156109ce573d6000803e3d6000fd5b505050507f9a2e42fd6722813d69113e7d0079d3d940171428df7373df9c7f7617cfda2892828242610a009190612a9a565b6040805192835260208301919091520160405180910390a15095945050505050565b600080610a3186868686610e4f565b90506000610a3e82610bcb565b90506004816007811115610a5457610a546125c2565b1480610a7157506005816007811115610a6f57610a6f6125c2565b145b610a8d5760405162461bcd60e51b815260040161075d906128bb565b600082815260016020818152604092839020600201805460ff191690921790915590518381527f712ae1383f79ac853f8d882153778e0260ef8f03b504e2866e0593e04d2b291f910160405180910390a1610aeb828888888861100f565b5095945050505050565b60008181526001602090815260408083208151928301909152546001600160401b0316908190525b6001600160401b031692915050565b600061070460025490565b604080517f150214d74d59b7d1e90c73fc22ef3d991dd0a76b046543d4d80ab92d2a50328f602082015290810186905260ff851660608201526000908190610ba390610b9b906080016040516020818303038152906040528051906020012061101c565b86868661106a565b9050610bc087828860405180602001604052806000815250611088565b979650505050505050565b600061071482611193565b600080339050610bf784828560405180602001604052806000815250611088565b949350505050565b610c076106f0565b6001600160a01b0316336001600160a01b031614610c375760405162461bcd60e51b815260040161075d90612849565b61076f816112fb565b600080339050610c8886828787878080601f01602080910402602001604051908101604052809392919081815260200183838082843760009201919091525061108892505050565b9695505050505050565b6000610ca08585858561133c565b95945050505050565b610cb16106f0565b6001600160a01b0316336001600160a01b031614610ce15760405162461bcd60e51b815260040161075d90612849565b61076f81611617565b60075460008281526008602052604080822054905163d45c443560e01b81526004810191909152909182916001600160a01b039091169063d45c44359060240160206040518083038186803b158015610d4257600080fd5b505afa158015610d56573d6000803e3d6000fd5b505050506040513d601f19601f82011682018060405250810190610d7a91906128fc565b905080600114610d8a5780610d8d565b60005b9392505050565b600061070460045490565b60008181526001602081815260408084208151928301909152909101546001600160401b031690819052610b1d565b610dd66106f0565b6001600160a01b0316336001600160a01b031614610e065760405162461bcd60e51b815260040161075d90612849565b610e488483838080601f016020809104026020016040519081016040528093929190818152602001838380828437600092019190915250889250611680915050565b5050505050565b600084848484604051602001610e689493929190612ab2565b60408051601f19818403018152919052805160209091012095945050505050565b610e916106f0565b6001600160a01b0316336001600160a01b031614610ec15760405162461bcd60e51b815260040161075d90612849565b61076f816116a6565b6000610d8d8383611747565b610ede6106f0565b6001600160a01b0316336001600160a01b031614610f0e5760405162461bcd60e51b815260040161075d90612849565b61076f816117ec565b60006107148261182d565b60006001600160e01b03198216636e665ced60e01b14806107145750610714826118e0565b6064811115610fca5760405162461bcd60e51b815260206004820152604360248201527f476f7665726e6f72566f74657351756f72756d4672616374696f6e3a2071756f60448201527f72756d4e756d657261746f72206f7665722071756f72756d44656e6f6d696e616064820152623a37b960e91b608482015260a40161075d565b600680549082905560408051828152602081018490527f0553476bf02ef2726e8ce5ced78d63e26e602e4a2257b1f559418e24b4633997910160405180910390a15050565b610e488585858585611915565b6000610714611029611989565b8360405161190160f01b6020820152602281018390526042810182905260009060620160405160208183030381529060405280519060200120905092915050565b600080600061107b87878787611ab0565b91509150610aeb81611b9d565b60008481526001602081905260408220906110a287610bcb565b60078111156110b3576110b36125c2565b1461110c5760405162461bcd60e51b815260206004820152602360248201527f476f7665726e6f723a20766f7465206e6f742063757272656e746c792061637460448201526269766560e81b606482015260840161075d565b604080516020810190915281546001600160401b031690819052600090611134908790610eca565b905061114287878784611d58565b856001600160a01b03167fb8e138887d0aa13bab447e82de9d5c1777041ecd21ca36ba824ff1e6c07ddda4888784886040516111819493929190612afd565b60405180910390a29695505050505050565b60008061119f83611ed7565b905060048160078111156111b5576111b56125c2565b146111c05792915050565b600083815260086020526040902054806111db575092915050565b600754604051632ab0f52960e01b8152600481018390526001600160a01b0390911690632ab0f5299060240160206040518083038186803b15801561121f57600080fd5b505afa158015611233573d6000803e3d6000fd5b505050506040513d601f19601f820116820180604052508101906112579190612b25565b15611266575060079392505050565b600754604051632c258a9f60e11b8152600481018390526001600160a01b039091169063584b153e9060240160206040518083038186803b1580156112aa57600080fd5b505afa1580156112be573d6000803e3d6000fd5b505050506040513d601f19601f820116820180604052508101906112e29190612b25565b156112f1575060059392505050565b5060029392505050565b60025460408051918252602082018390527fc565b045403dc03c2eea82b81a0465edad9e2e7fc4d97e11421c209da93d7a93910160405180910390a1600255565b6000611346610d94565b61135533610677600143612b47565b10156113d55760405162461bcd60e51b815260206004820152604360248201527f476f7665726e6f72436f6d7061746962696c697479427261766f3a2070726f7060448201527f6f73657220766f7465732062656c6f772070726f706f73616c207468726573686064820152621bdb1960ea1b608482015260a40161075d565b60006113ea8686868680519060200120610e4f565b9050845186511461140d5760405162461bcd60e51b815260040161075d90612b5e565b835186511461142e5760405162461bcd60e51b815260040161075d90612b5e565b600086511161147f5760405162461bcd60e51b815260206004820152601860248201527f476f7665726e6f723a20656d7074792070726f706f73616c0000000000000000604482015260640161075d565b600081815260016020908152604091829020825191820190925281546001600160401b031690819052156114ff5760405162461bcd60e51b815260206004820152602160248201527f476f7665726e6f723a2070726f706f73616c20616c72656164792065786973746044820152607360f81b606482015260840161075d565b600061151161150c610b2c565b611fe3565b61151a43611fe3565b6115249190612b9f565b9050600061153361150c61071a565b61153d9083612b9f565b835467ffffffffffffffff19166001600160401b038416178455905060018301805467ffffffffffffffff19166001600160401b0383161790557f7d84a6263ae0d98d3329bd7b46bb4e8d6f98cd35a7adb45c274c8b7fd5ebd5e084338b8b8d516001600160401b038111156115b5576115b5612297565b6040519080825280602002602001820160405280156115e857816020015b60608152602001906001900390816115d35790505b508c88888e60405161160299989796959493929190612bca565b60405180910390a15091979650505050505050565b600754604080516001600160a01b03928316815291831660208301527f08f74ea46ef7894f65eabfb5e6e695de773a000b47c529ab559178069b226401910160405180910390a1600780546001600160a01b0319166001600160a01b0392909216919091179055565b6060610bf7848484604051806060016040528060298152602001612d176029913961204f565b600081116117065760405162461bcd60e51b815260206004820152602760248201527f476f7665726e6f7253657474696e67733a20766f74696e6720706572696f6420604482015266746f6f206c6f7760c81b606482015260840161075d565b60035460408051918252602082018390527f7e3f7f0708a84de9203036abaa450dccc85ad5ff52f78c170f3edb55cf5e8828910160405180910390a1600355565b604051630748d63560e31b81526001600160a01b038381166004830152602482018390526000917f000000000000000000000000000000000000000000000000000000000000000090911690633a46b1a89060440160206040518083038186803b1580156117b457600080fd5b505afa1580156117c8573d6000803e3d6000fd5b505050506040513d601f19601f82011682018060405250810190610d8d91906128fc565b60045460408051918252602082018390527fccb45da8d5717e6c4544694297c4ba5cf151d455c9bb0ed4fc7a38411bc05461910160405180910390a1600455565b60006064600654604051632394e7a360e21b8152600481018590527f00000000000000000000000000000000000000000000000000000000000000006001600160a01b031690638e539e8c9060240160206040518083038186803b15801561189457600080fd5b505afa1580156118a8573d6000803e3d6000fd5b505050506040513d601f19601f820116820180604052508101906118cc91906128fc565b6118d69190612cb9565b6107149190612cd8565b60006001600160e01b0319821663bf26d89760e01b148061071457506301ffc9a760e01b6001600160e01b0319831614610714565b60075460405163e38335e560e01b81526001600160a01b039091169063e38335e59034906119509088908890889060009089906004016129de565b6000604051808303818588803b15801561196957600080fd5b505af115801561197d573d6000803e3d6000fd5b50505050505050505050565b6000306001600160a01b037f0000000000000000000000000000000000000000000000000000000000000000161480156119e257507f000000000000000000000000000000000000000000000000000000000000000046145b15611a0c57507f000000000000000000000000000000000000000000000000000000000000000090565b50604080517f00000000000000000000000000000000000000000000000000000000000000006020808301919091527f0000000000000000000000000000000000000000000000000000000000000000828401527f000000000000000000000000000000000000000000000000000000000000000060608301524660808301523060a0808401919091528351808403909101815260c0909201909252805191012090565b6000807f7fffffffffffffffffffffffffffffff5d576e7357a4501ddfe92f46681b20a0831115611ae75750600090506003611b94565b8460ff16601b14158015611aff57508460ff16601c14155b15611b105750600090506004611b94565b6040805160008082526020820180845289905260ff881692820192909252606081018690526080810185905260019060a0016020604051602081039080840390855afa158015611b64573d6000803e3d6000fd5b5050604051601f1901519150506001600160a01b038116611b8d57600060019250925050611b94565b9150600090505b94509492505050565b6000816004811115611bb157611bb16125c2565b1415611bba5750565b6001816004811115611bce57611bce6125c2565b1415611c1c5760405162461bcd60e51b815260206004820152601860248201527f45434453413a20696e76616c6964207369676e61747572650000000000000000604482015260640161075d565b6002816004811115611c3057611c306125c2565b1415611c7e5760405162461bcd60e51b815260206004820152601f60248201527f45434453413a20696e76616c6964207369676e6174757265206c656e67746800604482015260640161075d565b6003816004811115611c9257611c926125c2565b1415611ceb5760405162461bcd60e51b815260206004820152602260248201527f45434453413a20696e76616c6964207369676e6174757265202773272076616c604482015261756560f01b606482015260840161075d565b6004816004811115611cff57611cff6125c2565b141561076f5760405162461bcd60e51b815260206004820152602260248201527f45434453413a20696e76616c6964207369676e6174757265202776272076616c604482015261756560f01b606482015260840161075d565b60008481526005602090815260408083206001600160a01b0387168452600381019092529091205460ff1615611de05760405162461bcd60e51b815260206004820152602760248201527f476f7665726e6f72566f74696e6753696d706c653a20766f746520616c726561604482015266191e4818d85cdd60ca1b606482015260840161075d565b6001600160a01b03841660009081526003820160205260408120805460ff1916600117905560ff168360ff161415611e315781816000016000828254611e269190612a9a565b90915550610e489050565b60ff831660011415611e515781816001016000828254611e269190612a9a565b60ff831660021415611e715781816002016000828254611e269190612a9a565b60405162461bcd60e51b815260206004820152603560248201527f476f7665726e6f72566f74696e6753696d706c653a20696e76616c69642076616044820152746c756520666f7220656e756d20566f74655479706560581b606482015260840161075d565b6000818152600160205260408120600281015460ff1615611efb5750600792915050565b6002810154610100900460ff1615611f165750600292915050565b6000611f2184610af5565b905080611f705760405162461bcd60e51b815260206004820152601d60248201527f476f7665726e6f723a20756e6b6e6f776e2070726f706f73616c206964000000604482015260640161075d565b438110611f81575060009392505050565b6000611f8c85610d9f565b9050438110611fa057506001949350505050565b611fa985612175565b8015611fc8575060008581526005602052604090208054600190910154115b15611fd857506004949350505050565b506003949350505050565b60006001600160401b0382111561204b5760405162461bcd60e51b815260206004820152602660248201527f53616665436173743a2076616c756520646f65736e27742066697420696e203660448201526534206269747360d01b606482015260840161075d565b5090565b6060824710156120b05760405162461bcd60e51b815260206004820152602660248201527f416464726573733a20696e73756666696369656e742062616c616e636520666f6044820152651c8818d85b1b60d21b606482015260840161075d565b6001600160a01b0385163b6121075760405162461bcd60e51b815260206004820152601d60248201527f416464726573733a2063616c6c20746f206e6f6e2d636f6e7472616374000000604482015260640161075d565b600080866001600160a01b031685876040516121239190612cfa565b60006040518083038185875af1925050503d8060008114612160576040519150601f19603f3d011682016040523d82523d6000602084013e612165565b606091505b5091509150610bc08282866121ac565b6000818152600560205260408120600281015460018201546121979190612a9a565b6121a36106b785610af5565b11159392505050565b606083156121bb575081610d8d565b8251156121cb5782518084602001fd5b8160405162461bcd60e51b815260040161075d9190612284565b6000602082840312156121f757600080fd5b81356001600160e01b031981168114610d8d57600080fd5b60006020828403121561222157600080fd5b5035919050565b60005b8381101561224357818101518382015260200161222b565b83811115612252576000848401525b50505050565b60008151808452612270816020860160208601612228565b601f01601f19169290920160200192915050565b602081526000610d8d6020830184612258565b634e487b7160e01b600052604160045260246000fd5b604051601f8201601f191681016001600160401b03811182821017156122d5576122d5612297565b604052919050565b60006001600160401b038211156122f6576122f6612297565b5060051b60200190565b6001600160a01b038116811461076f57600080fd5b600082601f83011261232657600080fd5b8135602061233b612336836122dd565b6122ad565b82815260059290921b8401810191818101908684111561235a57600080fd5b8286015b8481101561237e57803561237181612300565b835291830191830161235e565b509695505050505050565b600082601f83011261239a57600080fd5b813560206123aa612336836122dd565b82815260059290921b840181019181810190868411156123c957600080fd5b8286015b8481101561237e57803583529183019183016123cd565b60006001600160401b038311156123fd576123fd612297565b612410601f8401601f19166020016122ad565b905082815283838301111561242457600080fd5b828260208301376000602084830101529392505050565b600082601f83011261244c57600080fd5b8135602061245c612336836122dd565b82815260059290921b8401810191818101908684111561247b57600080fd5b8286015b8481101561237e5780356001600160401b0381111561249e5760008081fd5b8701603f810189136124b05760008081fd5b6124c18986830135604084016123e4565b84525091830191830161247f565b600080600080608085870312156124e557600080fd5b84356001600160401b03808211156124fc57600080fd5b61250888838901612315565b9550602087013591508082111561251e57600080fd5b61252a88838901612389565b9450604087013591508082111561254057600080fd5b5061254d8782880161243b565b949793965093946060013593505050565b803560ff8116811461256f57600080fd5b919050565b600080600080600060a0868803121561258c57600080fd5b8535945061259c6020870161255e565b93506125aa6040870161255e565b94979396509394606081013594506080013592915050565b634e487b7160e01b600052602160045260246000fd5b60208101600883106125fa57634e487b7160e01b600052602160045260246000fd5b91905290565b6000806040838503121561261357600080fd5b82359150602083013561262581612300565b809150509250929050565b6000806040838503121561264357600080fd5b823591506126536020840161255e565b90509250929050565b60008083601f84011261266e57600080fd5b5081356001600160401b0381111561268557600080fd5b60208301915083602082850101111561269d57600080fd5b9250929050565b600080600080606085870312156126ba57600080fd5b843593506126ca6020860161255e565b925060408501356001600160401b038111156126e557600080fd5b6126f18782880161265c565b95989497509550505050565b6000806000806080858703121561271357600080fd5b84356001600160401b038082111561272a57600080fd5b61273688838901612315565b9550602087013591508082111561274c57600080fd5b61275888838901612389565b9450604087013591508082111561276e57600080fd5b61277a8883890161243b565b9350606087013591508082111561279057600080fd5b508501601f810187136127a257600080fd5b6127b1878235602084016123e4565b91505092959194509250565b6000602082840312156127cf57600080fd5b8135610d8d81612300565b600080600080606085870312156127f057600080fd5b84356127fb81612300565b93506020850135925060408501356001600160401b038111156126e557600080fd5b6000806040838503121561283057600080fd5b823561283b81612300565b946020939093013593505050565b60208082526018908201527f476f7665726e6f723a206f6e6c79476f7665726e616e63650000000000000000604082015260600190565b600181811c9082168061289457607f821691505b602082108114156128b557634e487b7160e01b600052602260045260246000fd5b50919050565b60208082526021908201527f476f7665726e6f723a2070726f706f73616c206e6f74207375636365737366756040820152601b60fa1b606082015260800190565b60006020828403121561290e57600080fd5b5051919050565b600081518084526020808501945080840160005b8381101561294e5781516001600160a01b031687529582019590820190600101612929565b509495945050505050565b600081518084526020808501945080840160005b8381101561294e5781518752958201959082019060010161296d565b600081518084526020808501808196508360051b8101915082860160005b858110156129d15782840389526129bf848351612258565b988501989350908401906001016129a7565b5091979650505050505050565b60a0815260006129f160a0830188612915565b8281036020840152612a038188612959565b90508281036040840152612a178187612989565b60608401959095525050608001529392505050565b60c081526000612a3f60c0830189612915565b8281036020840152612a518189612959565b90508281036040840152612a658188612989565b60608401969096525050608081019290925260a0909101529392505050565b634e487b7160e01b600052601160045260246000fd5b60008219821115612aad57612aad612a84565b500190565b608081526000612ac56080830187612915565b8281036020840152612ad78187612959565b90508281036040840152612aeb8186612989565b91505082606083015295945050505050565b84815260ff84166020820152826040820152608060608201526000610c886080830184612258565b600060208284031215612b3757600080fd5b81518015158114610d8d57600080fd5b600082821015612b5957612b59612a84565b500390565b60208082526021908201527f476f7665726e6f723a20696e76616c69642070726f706f73616c206c656e67746040820152600d60fb1b606082015260800190565b60006001600160401b03808316818516808303821115612bc157612bc1612a84565b01949350505050565b60006101208b8352602060018060a01b038c1681850152816040850152612bf38285018c612915565b91508382036060850152612c07828b612959565b915083820360808501528189518084528284019150828160051b850101838c0160005b83811015612c5857601f19878403018552612c46838351612258565b94860194925090850190600101612c2a565b505086810360a0880152612c6c818c612989565b945050505050612c8760c08401876001600160401b03169052565b6001600160401b03851660e0840152828103610100840152612ca98185612258565b9c9b505050505050505050505050565b6000816000190483118215151615612cd357612cd3612a84565b500290565b600082612cf557634e487b7160e01b600052601260045260246000fd5b500490565b60008251612d0c818460208701612228565b919091019291505056fe416464726573733a206c6f772d6c6576656c2063616c6c20776974682076616c7565206661696c6564a164736f6c6343000809000a60806040523480156200001157600080fd5b5060405162001df438038062001df48339810160408190526200003491620003a4565b6200004f60008051602062001d9483398151915280620001c9565b6200007960008051602062001db483398151915260008051602062001d94833981519152620001c9565b620000a360008051602062001dd483398151915260008051602062001d94833981519152620001c9565b620000be60008051602062001d948339815191523362000214565b620000d960008051602062001d948339815191523062000214565b60005b825181101562000136576200012360008051602062001db48339815191528483815181106200010f576200010f62000418565b60200260200101516200021460201b60201c565b6200012e816200042e565b9050620000dc565b5060005b815181101562000180576200016d60008051602062001dd48339815191528383815181106200010f576200010f62000418565b62000178816200042e565b90506200013a565b5060028390556040805160008152602081018590527f11c24f4ead16507c69ac467fbd5e4eed5fb5c699626d2cc6d66421df253886d5910160405180910390a150505062000458565b600082815260208190526040808220600101805490849055905190918391839186917fbd79b86ffe0ab8e8776151514217cd7cacd52c909f66475c3af44e129f0b00ff9190a4505050565b62000220828262000224565b5050565b6000828152602081815260408083206001600160a01b038516845290915290205460ff1662000220576000828152602081815260408083206001600160a01b03851684529091529020805460ff19166001179055620002803390565b6001600160a01b0316816001600160a01b0316837f2f8788117e7eff1d82e926ec794901d17c78024a50270940304540a733656f0d60405160405180910390a45050565b634e487b7160e01b600052604160045260246000fd5b80516001600160a01b0381168114620002f257600080fd5b919050565b600082601f8301126200030957600080fd5b815160206001600160401b0380831115620003285762000328620002c4565b8260051b604051601f19603f83011681018181108482111715620003505762000350620002c4565b6040529384528581018301938381019250878511156200036f57600080fd5b83870191505b8482101562000399576200038982620002da565b8352918301919083019062000375565b979650505050505050565b600080600060608486031215620003ba57600080fd5b835160208501519093506001600160401b0380821115620003da57600080fd5b620003e887838801620002f7565b93506040860151915080821115620003ff57600080fd5b506200040e86828701620002f7565b9150509250925092565b634e487b7160e01b600052603260045260246000fd5b60006000198214156200045157634e487b7160e01b600052601160045260246000fd5b5060010190565b61192c80620004686000396000f3fe60806040526004361061014f5760003560e01c806364d62353116100b6578063b1c5f4271161006f578063b1c5f427146103f3578063c4d252f514610413578063d45c443514610433578063d547741f14610460578063e38335e514610480578063f27a0c921461049357600080fd5b806364d623531461033c5780638065657f1461035c5780638f2a0bb01461037c5780638f61f4f51461039c57806391d14854146103be578063a217fddf146103de57600080fd5b8063248a9ca311610108578063248a9ca31461025b5780632ab0f5291461028b5780632f2ff15d146102bc57806331d50750146102dc57806336568abe146102fc578063584b153e1461031c57600080fd5b806301d5062a1461015b57806301ffc9a71461017d57806307bd0265146101b25780630d3cf6fc146101f4578063134008d31461022857806313bc9f201461023b57600080fd5b3661015657005b600080fd5b34801561016757600080fd5b5061017b6101763660046111b5565b6104a8565b005b34801561018957600080fd5b5061019d61019836600461122a565b61052c565b60405190151581526020015b60405180910390f35b3480156101be57600080fd5b506101e67fd8aa0f3194971a2a116679f7c2090f6939c8d4e01a2a8d7e41d55e5351469e6381565b6040519081526020016101a9565b34801561020057600080fd5b506101e67f5f58e3a2316349923ce3780f8d587db2d72378aed66a8261c916544fa6846ca581565b61017b610236366004611254565b610563565b34801561024757600080fd5b5061019d6102563660046112c0565b6105db565b34801561026757600080fd5b506101e66102763660046112c0565b60009081526020819052604090206001015490565b34801561029757600080fd5b5061019d6102a63660046112c0565b6000908152600160208190526040909120541490565b3480156102c857600080fd5b5061017b6102d73660046112d9565b610601565b3480156102e857600080fd5b5061019d6102f73660046112c0565b61062c565b34801561030857600080fd5b5061017b6103173660046112d9565b610645565b34801561032857600080fd5b5061019d6103373660046112c0565b6106c8565b34801561034857600080fd5b5061017b6103573660046112c0565b6106de565b34801561036857600080fd5b506101e6610377366004611254565b610782565b34801561038857600080fd5b5061017b61039736600461134a565b6107c1565b3480156103a857600080fd5b506101e660008051602061190083398151915281565b3480156103ca57600080fd5b5061019d6103d93660046112d9565b610902565b3480156103ea57600080fd5b506101e6600081565b3480156103ff57600080fd5b506101e661040e3660046113fc565b61092b565b34801561041f57600080fd5b5061017b61042e3660046112c0565b610970565b34801561043f57600080fd5b506101e661044e3660046112c0565b60009081526001602052604090205490565b34801561046c57600080fd5b5061017b61047b3660046112d9565b610a34565b61017b61048e3660046113fc565b610a5a565b34801561049f57600080fd5b506002546101e6565b6000805160206119008339815191526104c18133610b8f565b60006104d1898989898989610782565b90506104dd8184610bf3565b6000817f4cf4410cc57040e44862ef0f45f3dd5a5e02db8eb8add648d4b0e236f1d07dca8b8b8b8b8b8a604051610519969594939291906114ce565b60405180910390a3505050505050505050565b60006001600160e01b03198216637965db0b60e01b148061055d57506301ffc9a760e01b6001600160e01b03198316145b92915050565b7fd8aa0f3194971a2a116679f7c2090f6939c8d4e01a2a8d7e41d55e5351469e6361058f816000610902565b61059d5761059d8133610b8f565b60006105ad888888888888610782565b90506105b98185610ce2565b6105c88160008a8a8a8a610d7e565b6105d181610e92565b5050505050505050565b6000818152600160205260408120546001811180156105fa5750428111155b9392505050565b60008281526020819052604090206001015461061d8133610b8f565b6106278383610ecb565b505050565b60008181526001602052604081205481905b1192915050565b6001600160a01b03811633146106ba5760405162461bcd60e51b815260206004820152602f60248201527f416363657373436f6e74726f6c3a2063616e206f6e6c792072656e6f756e636560448201526e103937b632b9903337b91039b2b63360891b60648201526084015b60405180910390fd5b6106c48282610f4f565b5050565b600081815260016020819052604082205461063e565b3330146107415760405162461bcd60e51b815260206004820152602b60248201527f54696d656c6f636b436f6e74726f6c6c65723a2063616c6c6572206d7573742060448201526a62652074696d656c6f636b60a81b60648201526084016106b1565b60025460408051918252602082018390527f11c24f4ead16507c69ac467fbd5e4eed5fb5c699626d2cc6d66421df253886d5910160405180910390a1600255565b600086868686868660405160200161079f969594939291906114ce565b6040516020818303038152906040528051906020012090509695505050505050565b6000805160206119008339815191526107da8133610b8f565b8887146107f95760405162461bcd60e51b81526004016106b19061150b565b8885146108185760405162461bcd60e51b81526004016106b19061150b565b600061082a8b8b8b8b8b8b8b8b61092b565b90506108368184610bf3565b60005b8a8110156108f45780827f4cf4410cc57040e44862ef0f45f3dd5a5e02db8eb8add648d4b0e236f1d07dca8e8e858181106108765761087661154e565b905060200201602081019061088b9190611564565b8d8d8681811061089d5761089d61154e565b905060200201358c8c878181106108b6576108b661154e565b90506020028101906108c8919061157f565b8c8b6040516108dc969594939291906114ce565b60405180910390a36108ed816115dc565b9050610839565b505050505050505050505050565b6000918252602082815260408084206001600160a01b0393909316845291905290205460ff1690565b6000888888888888888860405160200161094c98979695949392919061168c565b60405160208183030381529060405280519060200120905098975050505050505050565b6000805160206119008339815191526109898133610b8f565b610992826106c8565b6109f85760405162461bcd60e51b815260206004820152603160248201527f54696d656c6f636b436f6e74726f6c6c65723a206f7065726174696f6e2063616044820152701b9b9bdd0818994818d85b98d95b1b1959607a1b60648201526084016106b1565b6000828152600160205260408082208290555183917fbaa1eb22f2a492ba1a5fea61b8df4d27c6c8b5f3971e63bb58fa14ff72eedb7091a25050565b600082815260208190526040902060010154610a508133610b8f565b6106278383610f4f565b7fd8aa0f3194971a2a116679f7c2090f6939c8d4e01a2a8d7e41d55e5351469e63610a86816000610902565b610a9457610a948133610b8f565b878614610ab35760405162461bcd60e51b81526004016106b19061150b565b878414610ad25760405162461bcd60e51b81526004016106b19061150b565b6000610ae48a8a8a8a8a8a8a8a61092b565b9050610af08185610ce2565b60005b89811015610b7957610b6982828d8d85818110610b1257610b1261154e565b9050602002016020810190610b279190611564565b8c8c86818110610b3957610b3961154e565b905060200201358b8b87818110610b5257610b5261154e565b9050602002810190610b64919061157f565b610d7e565b610b72816115dc565b9050610af3565b50610b8381610e92565b50505050505050505050565b610b998282610902565b6106c457610bb1816001600160a01b03166014610fb4565b610bbc836020610fb4565b604051602001610bcd929190611767565b60408051601f198184030181529082905262461bcd60e51b82526106b1916004016117dc565b610bfc8261062c565b15610c615760405162461bcd60e51b815260206004820152602f60248201527f54696d656c6f636b436f6e74726f6c6c65723a206f7065726174696f6e20616c60448201526e1c9958591e481cd8da19591d5b1959608a1b60648201526084016106b1565b600254811015610cc25760405162461bcd60e51b815260206004820152602660248201527f54696d656c6f636b436f6e74726f6c6c65723a20696e73756666696369656e746044820152652064656c617960d01b60648201526084016106b1565b610ccc814261180f565b6000928352600160205260409092209190915550565b610ceb826105db565b610d075760405162461bcd60e51b81526004016106b190611827565b801580610d235750600081815260016020819052604090912054145b6106c45760405162461bcd60e51b815260206004820152602660248201527f54696d656c6f636b436f6e74726f6c6c65723a206d697373696e6720646570656044820152656e64656e637960d01b60648201526084016106b1565b6000846001600160a01b0316848484604051610d9b929190611871565b60006040518083038185875af1925050503d8060008114610dd8576040519150601f19603f3d011682016040523d82523d6000602084013e610ddd565b606091505b5050905080610e4a5760405162461bcd60e51b815260206004820152603360248201527f54696d656c6f636b436f6e74726f6c6c65723a20756e6465726c79696e6720746044820152721c985b9cd858dd1a5bdb881c995d995c9d1959606a1b60648201526084016106b1565b85877fc2617efa69bab66782fa219543714338489c4e9e178271560a91b82c3f612b5887878787604051610e819493929190611881565b60405180910390a350505050505050565b610e9b816105db565b610eb75760405162461bcd60e51b81526004016106b190611827565b600090815260016020819052604090912055565b610ed58282610902565b6106c4576000828152602081815260408083206001600160a01b03851684529091529020805460ff19166001179055610f0b3390565b6001600160a01b0316816001600160a01b0316837f2f8788117e7eff1d82e926ec794901d17c78024a50270940304540a733656f0d60405160405180910390a45050565b610f598282610902565b156106c4576000828152602081815260408083206001600160a01b0385168085529252808320805460ff1916905551339285917ff6391f5c32d9c69d2a47ea670b442974b53935d1edc7fd64eb21e047a839171b9190a45050565b60606000610fc38360026118b3565b610fce90600261180f565b67ffffffffffffffff811115610fe657610fe66118d2565b6040519080825280601f01601f191660200182016040528015611010576020820181803683370190505b509050600360fc1b8160008151811061102b5761102b61154e565b60200101906001600160f81b031916908160001a905350600f60fb1b8160018151811061105a5761105a61154e565b60200101906001600160f81b031916908160001a905350600061107e8460026118b3565b61108990600161180f565b90505b6001811115611101576f181899199a1a9b1b9c1cb0b131b232b360811b85600f16601081106110bd576110bd61154e565b1a60f81b8282815181106110d3576110d361154e565b60200101906001600160f81b031916908160001a90535060049490941c936110fa816118e8565b905061108c565b5083156105fa5760405162461bcd60e51b815260206004820181905260248201527f537472696e67733a20686578206c656e67746820696e73756666696369656e7460448201526064016106b1565b80356001600160a01b038116811461116757600080fd5b919050565b60008083601f84011261117e57600080fd5b50813567ffffffffffffffff81111561119657600080fd5b6020830191508360208285010111156111ae57600080fd5b9250929050565b600080600080600080600060c0888a0312156111d057600080fd5b6111d988611150565b965060208801359550604088013567ffffffffffffffff8111156111fc57600080fd5b6112088a828b0161116c565b989b979a50986060810135976080820135975060a09091013595509350505050565b60006020828403121561123c57600080fd5b81356001600160e01b0319811681146105fa57600080fd5b60008060008060008060a0878903121561126d57600080fd5b61127687611150565b955060208701359450604087013567ffffffffffffffff81111561129957600080fd5b6112a589828a0161116c565b979a9699509760608101359660809091013595509350505050565b6000602082840312156112d257600080fd5b5035919050565b600080604083850312156112ec57600080fd5b823591506112fc60208401611150565b90509250929050565b60008083601f84011261131757600080fd5b50813567ffffffffffffffff81111561132f57600080fd5b6020830191508360208260051b85010111156111ae57600080fd5b600080600080600080600080600060c08a8c03121561136857600080fd5b893567ffffffffffffffff8082111561138057600080fd5b61138c8d838e01611305565b909b50995060208c01359150808211156113a557600080fd5b6113b18d838e01611305565b909950975060408c01359150808211156113ca57600080fd5b506113d78c828d01611305565b9a9d999c50979a969997986060880135976080810135975060a0013595509350505050565b60008060008060008060008060a0898b03121561141857600080fd5b883567ffffffffffffffff8082111561143057600080fd5b61143c8c838d01611305565b909a50985060208b013591508082111561145557600080fd5b6114618c838d01611305565b909850965060408b013591508082111561147a57600080fd5b506114878b828c01611305565b999c989b509699959896976060870135966080013595509350505050565b81835281816020850137506000828201602090810191909152601f909101601f19169091010190565b60018060a01b038716815285602082015260a0604082015260006114f660a0830186886114a5565b60608301949094525060800152949350505050565b60208082526023908201527f54696d656c6f636b436f6e74726f6c6c65723a206c656e677468206d69736d616040820152620e8c6d60eb1b606082015260800190565b634e487b7160e01b600052603260045260246000fd5b60006020828403121561157657600080fd5b6105fa82611150565b6000808335601e1984360301811261159657600080fd5b83018035915067ffffffffffffffff8211156115b157600080fd5b6020019150368190038213156111ae57600080fd5b634e487b7160e01b600052601160045260246000fd5b60006000198214156115f0576115f06115c6565b5060010190565b60008383855260208086019550808560051b8301018460005b8781101561167f57848303601f19018952813536889003601e1901811261163657600080fd5b8701803567ffffffffffffffff81111561164f57600080fd5b80360389131561165e57600080fd5b61166b85828885016114a5565b9a86019a9450505090830190600101611610565b5090979650505050505050565b60a0808252810188905260008960c08301825b8b8110156116cd576001600160a01b036116b884611150565b1682526020928301929091019060010161169f565b5083810360208501528881526001600160fb1b038911156116ed57600080fd5b8860051b9150818a60208301378181019150506020810160008152602084830301604085015261171e81888a6115f7565b6060850196909652505050608001529695505050505050565b60005b8381101561175257818101518382015260200161173a565b83811115611761576000848401525b50505050565b7f416363657373436f6e74726f6c3a206163636f756e742000000000000000000081526000835161179f816017850160208801611737565b7001034b99036b4b9b9b4b733903937b6329607d1b60179184019182015283516117d0816028840160208801611737565b01602801949350505050565b60208152600082518060208401526117fb816040850160208701611737565b601f01601f19169190910160400192915050565b60008219821115611822576118226115c6565b500190565b6020808252602a908201527f54696d656c6f636b436f6e74726f6c6c65723a206f7065726174696f6e206973604082015269206e6f7420726561647960b01b606082015260800190565b8183823760009101908152919050565b60018060a01b03851681528360208201526060604082015260006118a96060830184866114a5565b9695505050505050565b60008160001904831182151516156118cd576118cd6115c6565b500290565b634e487b7160e01b600052604160045260246000fd5b6000816118f7576118f76115c6565b50600019019056feb09aa5aeb3702cfd50b6b62bc4532604938f21248a27a1d5ca736082b6819cc1a164736f6c6343000809000a5f58e3a2316349923ce3780f8d587db2d72378aed66a8261c916544fa6846ca5b09aa5aeb3702cfd50b6b62bc4532604938f21248a27a1d5ca736082b6819cc1d8aa0f3194971a2a116679f7c2090f6939c8d4e01a2a8d7e41d55e5351469e636101806040523480156200001257600080fd5b50604051620011c9380380620011c983398101604081905262000035916200020f565b600080546001600160a01b0319166001600160a01b038a1690811782556040518a92907f8be0079c531659141344cd1fd0a4f28419497f9722a3daafe3b4186f6b6457e0908290a35060008611620000d45760405162461bcd60e51b815260206004820152601960248201527f646576546f6b656e426970732063616e206e6f7420626520300000000000000060448201526064015b60405180910390fd5b6103e8861115620001285760405162461bcd60e51b815260206004820152601560248201527f646576546f6b656e4269707320746f6f206869676800000000000000000000006044820152606401620000cb565b428463ffffffff1611620001715760405162461bcd60e51b815260206004820152600f60248201526e737461727420746f6f206561726c7960881b6044820152606401620000cb565b6001600160a01b0380881660a05260c0879052851660805263ffffffff841660e0526000620001a18486620002bb565b63ffffffff908116610100819052858216610120529150620001c690841682620002e6565b610140525061016052506200030195505050505050565b80516001600160a01b0381168114620001f557600080fd5b919050565b805163ffffffff81168114620001f557600080fd5b600080600080600080600080610100898b0312156200022d57600080fd5b6200023889620001dd565b97506200024860208a01620001dd565b9650604089015195506200025f60608a01620001dd565b94506200026f60808a01620001fa565b93506200027f60a08a01620001fa565b92506200028f60c08a01620001fa565b915060e089015190509295985092959890939650565b634e487b7160e01b600052601160045260246000fd5b600063ffffffff808316818516808303821115620002dd57620002dd620002a5565b01949350505050565b60008219821115620002fc57620002fc620002a5565b500190565b60805160a05160c05160e05161010051610120516101405161016051610e15620003b46000396000818161027101526108dc0152600081816103750152610905015260006101dc0152600081816103a9015261089601526000818161016601526108680152600081816101a801526106a2015260008181610210015261067e015260008181610115015281816104780152818161064f015281816106c3015281816107c60152610a240152610e156000f3fe6080604052600436106100fe5760003560e01c8063564ff4ad11610095578063c19d93fb11610064578063c19d93fb14610339578063d0e30db01461035b578063e065e87214610363578063ed338ff114610397578063f2fde38b146103cb57600080fd5b8063564ff4ad146102b5578063715018a6146102e65780637e66c0b9146102fb5780638da5cb5b1461031b57600080fd5b80633ad10ef6116100d15780633ad10ef6146101fe5780634a4643f71461023257806355c64bfe1461025f578063563ff2731461029357600080fd5b80630e9e0410146101035780631cbaee2d146101545780632127cbb7146101965780633711d9fb146101ca575b600080fd5b34801561010f57600080fd5b506101377f000000000000000000000000000000000000000000000000000000000000000081565b6040516001600160a01b0390911681526020015b60405180910390f35b34801561016057600080fd5b506101887f000000000000000000000000000000000000000000000000000000000000000081565b60405190815260200161014b565b3480156101a257600080fd5b506101887f000000000000000000000000000000000000000000000000000000000000000081565b3480156101d657600080fd5b506101887f000000000000000000000000000000000000000000000000000000000000000081565b34801561020a57600080fd5b506101377f000000000000000000000000000000000000000000000000000000000000000081565b34801561023e57600080fd5b5061018861024d366004610c4d565b60016020526000908152604090205481565b34801561026b57600080fd5b506101887f000000000000000000000000000000000000000000000000000000000000000081565b34801561029f57600080fd5b506102b36102ae366004610c7d565b6103eb565b005b3480156102c157600080fd5b506000546102d690600160a01b900460ff1681565b604051901515815260200161014b565b3480156102f257600080fd5b506102b3610526565b34801561030757600080fd5b506102b3610316366004610c4d565b61055c565b34801561032757600080fd5b506000546001600160a01b0316610137565b34801561034557600080fd5b5061034e610864565b60405161014b9190610cac565b6102b3610939565b34801561036f57600080fd5b506101887f000000000000000000000000000000000000000000000000000000000000000081565b3480156103a357600080fd5b506101887f000000000000000000000000000000000000000000000000000000000000000081565b3480156103d757600080fd5b506102b36103e6366004610c4d565b610ac1565b60408051808201909152601381527214d85b19481a185cc81b9bdd0819985a5b1959606a1b602082015260049081610421610864565b600481111561043257610432610c96565b14819061045b5760405162461bcd60e51b81526004016104529190610cd4565b60405180910390fd5b50604051632770a7eb60e21b8152336004820152602481018490527f00000000000000000000000000000000000000000000000000000000000000006001600160a01b031690639dc29fac90604401600060405180830381600087803b1580156104c457600080fd5b505af11580156104d8573d6000803e3d6000fd5b505050506104ec6104e63390565b84610b5c565b60405183815233907f884edad9ce6fa2440d8a54cc123490eb96d2768479d49ff9c7366125a94243649060200160405180910390a2505050565b6000546001600160a01b031633146105505760405162461bcd60e51b815260040161045290610d29565b61055a6000610bfd565b565b6000546001600160a01b031633146105865760405162461bcd60e51b815260040161045290610d29565b6002604051806060016040528060228152602001610de7602291398160048111156105b3576105b3610c96565b6105bb610864565b60048111156105cc576105cc610c96565b1481906105ec5760405162461bcd60e51b81526004016104529190610cd4565b506000805460ff60a01b1916600160a01b1790554761060b8482610b5c565b604080516001600160a01b0386168152602081018390527f0d7976053781e071cecf47e898ad2a6dc87621ca33734e96eb4b92453319e8c9910160405180910390a17f00000000000000000000000000000000000000000000000000000000000000006001600160a01b03166340c10f197f00000000000000000000000000000000000000000000000000000000000000006127107f00000000000000000000000000000000000000000000000000000000000000007f00000000000000000000000000000000000000000000000000000000000000006001600160a01b03166318160ddd6040518163ffffffff1660e01b815260040160206040518083038186803b15801561071a57600080fd5b505afa15801561072e573d6000803e3d6000fd5b505050506040513d601f19601f820116820180604052508101906107529190610d5e565b61075c9190610d8d565b6107669190610dac565b6040516001600160e01b031960e085901b1681526001600160a01b0390921660048301526024820152604401600060405180830381600087803b1580156107ac57600080fd5b505af11580156107c0573d6000803e3d6000fd5b505050507f00000000000000000000000000000000000000000000000000000000000000006001600160a01b031663f2fde38b6108056000546001600160a01b031690565b6040516001600160e01b031960e084901b1681526001600160a01b039091166004820152602401600060405180830381600087803b15801561084657600080fd5b505af115801561085a573d6000803e3d6000fd5b5050505050505050565b60007f00000000000000000000000000000000000000000000000000000000000000004210156108945750600090565b7f00000000000000000000000000000000000000000000000000000000000000004210156108c25750600190565b600054600160a01b900460ff16156108da5750600390565b7f000000000000000000000000000000000000000000000000000000000000000047108061092857507f00000000000000000000000000000000000000000000000000000000000000004210155b156109335750600490565b50600290565b60408051808201909152600f81526e53616c65206e6f742061637469766560881b60208201526001908161096b610864565b600481111561097c5761097c610c96565b14819061099c5760405162461bcd60e51b81526004016104529190610cd4565b50600034116109e55760405162461bcd60e51b8152602060048201526015602482015274086c2dc40dcdee840c8cae0dee6d2e84060408aa89605b1b6044820152606401610452565b3360009081526001602052604081208054349290610a04908490610dce565b90915550506040516340c10f1960e01b81523360048201523460248201527f00000000000000000000000000000000000000000000000000000000000000006001600160a01b0316906340c10f1990604401600060405180830381600087803b158015610a7057600080fd5b505af1158015610a84573d6000803e3d6000fd5b50506040513481523392507fe1fffcc4923d04b559f4d29a8bfc6cda04eb5b0d3c460751c2402c5c5cc9109c915060200160405180910390a25050565b6000546001600160a01b03163314610aeb5760405162461bcd60e51b815260040161045290610d29565b6001600160a01b038116610b505760405162461bcd60e51b815260206004820152602660248201527f4f776e61626c653a206e6577206f776e657220697320746865207a65726f206160448201526564647265737360d01b6064820152608401610452565b610b5981610bfd565b50565b6000826001600160a01b03168260405160006040518083038185875af1925050503d8060008114610ba9576040519150601f19603f3d011682016040523d82523d6000602084013e610bae565b606091505b5050905080610bf85760405162461bcd60e51b815260206004820152601660248201527508cc2d2d8cac840e8de40e8e4c2dce6cccae4408aa8960531b6044820152606401610452565b505050565b600080546001600160a01b038381166001600160a01b0319831681178455604051919092169283917f8be0079c531659141344cd1fd0a4f28419497f9722a3daafe3b4186f6b6457e09190a35050565b600060208284031215610c5f57600080fd5b81356001600160a01b0381168114610c7657600080fd5b9392505050565b600060208284031215610c8f57600080fd5b5035919050565b634e487b7160e01b600052602160045260246000fd5b6020810160058310610cce57634e487b7160e01b600052602160045260246000fd5b91905290565b600060208083528351808285015260005b81811015610d0157858101830151858201604001528201610ce5565b81811115610d13576000604083870101525b50601f01601f1916929092016040019392505050565b6020808252818101527f4f776e61626c653a2063616c6c6572206973206e6f7420746865206f776e6572604082015260600190565b600060208284031215610d7057600080fd5b5051919050565b634e487b7160e01b600052601160045260246000fd5b6000816000190483118215151615610da757610da7610d77565b500290565b600082610dc957634e487b7160e01b600052601260045260246000fd5b500490565b60008219821115610de157610de1610d77565b50019056fe46756e6473206e6f742070656e64696e6720676f7665726e616e636520636c61696da164736f6c6343000809000a",
  "devdoc": {
    "kind": "dev",
    "methods": {},
    "version": 1
  },
  "userdoc": {
    "kind": "user",
    "methods": {},
    "notice": "Deployer for Fem governance contracts and FemErecter. Deploys governance in an unusable state, then activates the contracts once the sale is successful.",
    "version": 1
  },
  "storageLayout": {
    "storage": [],
    "types": null
  }
}